{
  "_format": "hh-sol-artifact-1",
  "contractName": "ExtensionMint",
  "sourceName": "contracts/ExtensionMint.sol",
  "abi": [
    {
      "inputs": [
        {
          "internalType": "address",
          "name": "creator",
          "type": "address"
        }
      ],
      "stateMutability": "nonpayable",
      "type": "constructor"
    },
    {
      "anonymous": false,
      "inputs": [
        {
          "indexed": true,
          "internalType": "address",
          "name": "account",
          "type": "address"
        },
        {
          "indexed": true,
          "internalType": "address",
          "name": "sender",
          "type": "address"
        }
      ],
      "name": "AdminApproved",
      "type": "event"
    },
    {
      "anonymous": false,
      "inputs": [
        {
          "indexed": true,
          "internalType": "address",
          "name": "account",
          "type": "address"
        },
        {
          "indexed": true,
          "internalType": "address",
          "name": "sender",
          "type": "address"
        }
      ],
      "name": "AdminRevoked",
      "type": "event"
    },
    {
      "anonymous": false,
      "inputs": [
        {
          "indexed": true,
          "internalType": "address",
          "name": "previousOwner",
          "type": "address"
        },
        {
          "indexed": true,
          "internalType": "address",
          "name": "newOwner",
          "type": "address"
        }
      ],
      "name": "OwnershipTransferred",
      "type": "event"
    },
    {
      "inputs": [],
      "name": "_script",
      "outputs": [
        {
          "internalType": "string",
          "name": "",
          "type": "string"
        }
      ],
      "stateMutability": "view",
      "type": "function"
    },
    {
      "inputs": [
        {
          "internalType": "address",
          "name": "admin",
          "type": "address"
        }
      ],
      "name": "approveAdmin",
      "outputs": [],
      "stateMutability": "nonpayable",
      "type": "function"
    },
    {
      "inputs": [],
      "name": "getAdmins",
      "outputs": [
        {
          "internalType": "address[]",
          "name": "admins",
          "type": "address[]"
        }
      ],
      "stateMutability": "view",
      "type": "function"
    },
    {
      "inputs": [
        {
          "internalType": "address",
          "name": "admin",
          "type": "address"
        }
      ],
      "name": "isAdmin",
      "outputs": [
        {
          "internalType": "bool",
          "name": "",
          "type": "bool"
        }
      ],
      "stateMutability": "view",
      "type": "function"
    },
    {
      "inputs": [
        {
          "internalType": "string",
          "name": "name",
          "type": "string"
        },
        {
          "internalType": "string",
          "name": "description",
          "type": "string"
        },
        {
          "internalType": "string",
          "name": "image",
          "type": "string"
        }
      ],
      "name": "mint",
      "outputs": [],
      "stateMutability": "nonpayable",
      "type": "function"
    },
    {
      "inputs": [],
      "name": "owner",
      "outputs": [
        {
          "internalType": "address",
          "name": "",
          "type": "address"
        }
      ],
      "stateMutability": "view",
      "type": "function"
    },
    {
      "inputs": [],
      "name": "renounceOwnership",
      "outputs": [],
      "stateMutability": "nonpayable",
      "type": "function"
    },
    {
      "inputs": [
        {
          "internalType": "address",
          "name": "admin",
          "type": "address"
        }
      ],
      "name": "revokeAdmin",
      "outputs": [],
      "stateMutability": "nonpayable",
      "type": "function"
    },
    {
      "inputs": [
        {
          "internalType": "bytes4",
          "name": "interfaceId",
          "type": "bytes4"
        }
      ],
      "name": "supportsInterface",
      "outputs": [
        {
          "internalType": "bool",
          "name": "",
          "type": "bool"
        }
      ],
      "stateMutability": "view",
      "type": "function"
    },
    {
      "inputs": [
        {
          "internalType": "address",
          "name": "creator",
          "type": "address"
        },
        {
          "internalType": "uint256",
          "name": "tokenId",
          "type": "uint256"
        }
      ],
      "name": "tokenURI",
      "outputs": [
        {
          "internalType": "string",
          "name": "",
          "type": "string"
        }
      ],
      "stateMutability": "view",
      "type": "function"
    },
    {
      "inputs": [
        {
          "internalType": "address",
          "name": "newOwner",
          "type": "address"
        }
      ],
      "name": "transferOwnership",
      "outputs": [],
      "stateMutability": "nonpayable",
      "type": "function"
    }
  ],
  "bytecode": "0x60806040523480156200001157600080fd5b5060405162001f3438038062001f34833981810160405281019062000037919062000182565b620000576200004b6200009f60201b60201c565b620000a760201b60201c565b80600360006101000a81548173ffffffffffffffffffffffffffffffffffffffff021916908373ffffffffffffffffffffffffffffffffffffffff16021790555050620001fc565b600033905090565b60008060009054906101000a900473ffffffffffffffffffffffffffffffffffffffff169050816000806101000a81548173ffffffffffffffffffffffffffffffffffffffff021916908373ffffffffffffffffffffffffffffffffffffffff1602179055508173ffffffffffffffffffffffffffffffffffffffff168173ffffffffffffffffffffffffffffffffffffffff167f8be0079c531659141344cd1fd0a4f28419497f9722a3daafe3b4186f6b6457e060405160405180910390a35050565b6000815190506200017c81620001e2565b92915050565b6000602082840312156200019557600080fd5b6000620001a5848285016200016b565b91505092915050565b6000620001bb82620001c2565b9050919050565b600073ffffffffffffffffffffffffffffffffffffffff82169050919050565b620001ed81620001ae565b8114620001f957600080fd5b50565b611d28806200020c6000396000f3fe608060405234801561001057600080fd5b50600436106100a95760003560e01c8063715018a611610071578063715018a6146101645780638a0162491461016e5780638da5cb5b1461018c578063d645ddf6146101aa578063e9dc6375146101c6578063f2fde38b146101f6576100a9565b806301ffc9a7146100ae57806324d7806c146100de5780632d3456701461010e57806331ae450b1461012a5780636d73e66914610148575b600080fd5b6100c860048036038101906100c3919061126c565b610212565b6040516100d591906118f7565b60405180910390f35b6100f860048036038101906100f39190611207565b61029c565b60405161010591906118f7565b60405180910390f35b61012860048036038101906101239190611207565b6102f6565b005b6101326103fe565b60405161013f91906118d5565b60405180910390f35b610162600480360381019061015d9190611207565b61052c565b005b61016c610633565b005b6101766106bb565b6040516101839190611912565b60405180910390f35b610194610749565b6040516101a191906118ba565b60405180910390f35b6101c460048036038101906101bf9190611295565b610772565b005b6101e060048036038101906101db9190611230565b61097e565b6040516101ed9190611912565b60405180910390f35b610210600480360381019061020b9190611207565b610ac6565b005b60007fe9dc6375000000000000000000000000000000000000000000000000000000007bffffffffffffffffffffffffffffffffffffffffffffffffffffffff1916827bffffffffffffffffffffffffffffffffffffffffffffffffffffffff19161480610285575061028482610bbe565b5b80610295575061029482610bbe565b5b9050919050565b60008173ffffffffffffffffffffffffffffffffffffffff166102bd610749565b73ffffffffffffffffffffffffffffffffffffffff1614806102ef57506102ee826001610c3890919063ffffffff16565b5b9050919050565b6102fe610c68565b73ffffffffffffffffffffffffffffffffffffffff1661031c610749565b73ffffffffffffffffffffffffffffffffffffffff1614610372576040517f08c379a000000000000000000000000000000000000000000000000000000000815260040161036990611994565b60405180910390fd5b610386816001610c3890919063ffffffff16565b156103fb573373ffffffffffffffffffffffffffffffffffffffff168173ffffffffffffffffffffffffffffffffffffffff167f7c0c3c84c67c85fcac635147348bfe374c24a1a93d0366d1cfe9d8853cbf89d560405160405180910390a36103f9816001610c7090919063ffffffff16565b505b50565b606061040a6001610ca0565b67ffffffffffffffff811115610449577f4e487b7100000000000000000000000000000000000000000000000000000000600052604160045260246000fd5b6040519080825280602002602001820160405280156104775781602001602082028036833780820191505090505b50905060005b6104876001610ca0565b811015610528576104a2816001610cb590919063ffffffff16565b8282815181106104db577f4e487b7100000000000000000000000000000000000000000000000000000000600052603260045260246000fd5b602002602001019073ffffffffffffffffffffffffffffffffffffffff16908173ffffffffffffffffffffffffffffffffffffffff1681525050808061052090611bc6565b91505061047d565b5090565b610534610c68565b73ffffffffffffffffffffffffffffffffffffffff16610552610749565b73ffffffffffffffffffffffffffffffffffffffff16146105a8576040517f08c379a000000000000000000000000000000000000000000000000000000000815260040161059f90611994565b60405180910390fd5b6105bc816001610c3890919063ffffffff16565b610630573373ffffffffffffffffffffffffffffffffffffffff168173ffffffffffffffffffffffffffffffffffffffff167f7e1a1a08d52e4ba0e21554733d66165fd5151f99460116223d9e3a608eec5cb160405160405180910390a361062e816001610ccf90919063ffffffff16565b505b50565b61063b610c68565b73ffffffffffffffffffffffffffffffffffffffff16610659610749565b73ffffffffffffffffffffffffffffffffffffffff16146106af576040517f08c379a00000000000000000000000000000000000000000000000000000000081526004016106a690611994565b60405180910390fd5b6106b96000610cff565b565b600580546106c890611b94565b80601f01602080910402602001604051908101604052809291908181526020018280546106f490611b94565b80156107415780601f1061071657610100808354040283529160200191610741565b820191906000526020600020905b81548152906001019060200180831161072457829003601f168201915b505050505081565b60008060009054906101000a900473ffffffffffffffffffffffffffffffffffffffff16905090565b3373ffffffffffffffffffffffffffffffffffffffff16610791610749565b73ffffffffffffffffffffffffffffffffffffffff1614806107c357506107c2336001610c3890919063ffffffff16565b5b610802576040517f08c379a00000000000000000000000000000000000000000000000000000000081526004016107f9906119b4565b60405180910390fd5b600060045414610847576040517f08c379a000000000000000000000000000000000000000000000000000000000815260040161083e90611934565b60405180910390fd5b826006908051906020019061085d9291906110a8565b5081600790805190602001906108749291906110a8565b508060096000600281106108b1577f4e487b7100000000000000000000000000000000000000000000000000000000600052603260045260246000fd5b0190805190602001906108c59291906110a8565b50600360009054906101000a900473ffffffffffffffffffffffffffffffffffffffff1673ffffffffffffffffffffffffffffffffffffffff16632928ca58336040518263ffffffff1660e01b815260040161092191906118ba565b602060405180830381600087803b15801561093b57600080fd5b505af115801561094f573d6000803e3d6000fd5b505050506040513d601f19601f82011682018060405250810190610973919061132c565b600481905550505050565b6060600360009054906101000a900473ffffffffffffffffffffffffffffffffffffffff1673ffffffffffffffffffffffffffffffffffffffff168373ffffffffffffffffffffffffffffffffffffffff161480156109de575060045482145b610a1d576040517f08c379a0000000000000000000000000000000000000000000000000000000008152600401610a1490611974565b60405180910390fd5b600660076009600060028110610a5c577f4e487b7100000000000000000000000000000000000000000000000000000000600052603260045260246000fd5b016009600060028110610a98577f4e487b7100000000000000000000000000000000000000000000000000000000600052603260045260246000fd5b016008604051602001610aaf959493929190611822565b604051602081830303815290604052905092915050565b610ace610c68565b73ffffffffffffffffffffffffffffffffffffffff16610aec610749565b73ffffffffffffffffffffffffffffffffffffffff1614610b42576040517f08c379a0000000000000000000000000000000000000000000000000000000008152600401610b3990611994565b60405180910390fd5b600073ffffffffffffffffffffffffffffffffffffffff168173ffffffffffffffffffffffffffffffffffffffff161415610bb2576040517f08c379a0000000000000000000000000000000000000000000000000000000008152600401610ba990611954565b60405180910390fd5b610bbb81610cff565b50565b60007f553e757e000000000000000000000000000000000000000000000000000000007bffffffffffffffffffffffffffffffffffffffffffffffffffffffff1916827bffffffffffffffffffffffffffffffffffffffffffffffffffffffff19161480610c315750610c3082610dc3565b5b9050919050565b6000610c60836000018373ffffffffffffffffffffffffffffffffffffffff1660001b610e2d565b905092915050565b600033905090565b6000610c98836000018373ffffffffffffffffffffffffffffffffffffffff1660001b610e50565b905092915050565b6000610cae82600001610fd6565b9050919050565b6000610cc48360000183610fe7565b60001c905092915050565b6000610cf7836000018373ffffffffffffffffffffffffffffffffffffffff1660001b611038565b905092915050565b60008060009054906101000a900473ffffffffffffffffffffffffffffffffffffffff169050816000806101000a81548173ffffffffffffffffffffffffffffffffffffffff021916908373ffffffffffffffffffffffffffffffffffffffff1602179055508173ffffffffffffffffffffffffffffffffffffffff168173ffffffffffffffffffffffffffffffffffffffff167f8be0079c531659141344cd1fd0a4f28419497f9722a3daafe3b4186f6b6457e060405160405180910390a35050565b60007f01ffc9a7000000000000000000000000000000000000000000000000000000007bffffffffffffffffffffffffffffffffffffffffffffffffffffffff1916827bffffffffffffffffffffffffffffffffffffffffffffffffffffffff1916149050919050565b600080836001016000848152602001908152602001600020541415905092915050565b60008083600101600084815260200190815260200160002054905060008114610fca576000600182610e829190611aaa565b9050600060018660000180549050610e9a9190611aaa565b9050818114610f55576000866000018281548110610ee1577f4e487b7100000000000000000000000000000000000000000000000000000000600052603260045260246000fd5b9060005260206000200154905080876000018481548110610f2b577f4e487b7100000000000000000000000000000000000000000000000000000000600052603260045260246000fd5b90600052602060002001819055508387600101600083815260200190815260200160002081905550505b85600001805480610f8f577f4e487b7100000000000000000000000000000000000000000000000000000000600052603160045260246000fd5b600190038181906000526020600020016000905590558560010160008681526020019081526020016000206000905560019350505050610fd0565b60009150505b92915050565b600081600001805490509050919050565b6000826000018281548110611025577f4e487b7100000000000000000000000000000000000000000000000000000000600052603260045260246000fd5b9060005260206000200154905092915050565b60006110448383610e2d565b61109d5782600001829080600181540180825580915050600190039060005260206000200160009091909190915055826000018054905083600101600084815260200190815260200160002081905550600190506110a2565b600090505b92915050565b8280546110b490611b94565b90600052602060002090601f0160209004810192826110d6576000855561111d565b82601f106110ef57805160ff191683800117855561111d565b8280016001018555821561111d579182015b8281111561111c578251825591602001919060010190611101565b5b50905061112a919061112e565b5090565b5b8082111561114757600081600090555060010161112f565b5090565b600061115e61115984611a05565b6119d4565b90508281526020810184848401111561117657600080fd5b611181848285611b52565b509392505050565b60008135905061119881611cad565b92915050565b6000813590506111ad81611cc4565b92915050565b600082601f8301126111c457600080fd5b81356111d484826020860161114b565b91505092915050565b6000813590506111ec81611cdb565b92915050565b60008151905061120181611cdb565b92915050565b60006020828403121561121957600080fd5b600061122784828501611189565b91505092915050565b6000806040838503121561124357600080fd5b600061125185828601611189565b9250506020611262858286016111dd565b9150509250929050565b60006020828403121561127e57600080fd5b600061128c8482850161119e565b91505092915050565b6000806000606084860312156112aa57600080fd5b600084013567ffffffffffffffff8111156112c457600080fd5b6112d0868287016111b3565b935050602084013567ffffffffffffffff8111156112ed57600080fd5b6112f9868287016111b3565b925050604084013567ffffffffffffffff81111561131657600080fd5b611322868287016111b3565b9150509250925092565b60006020828403121561133e57600080fd5b600061134c848285016111f2565b91505092915050565b6000611361838361136d565b60208301905092915050565b61137681611ade565b82525050565b61138581611ade565b82525050565b600061139682611a5a565b6113a08185611a7d565b93506113ab83611a35565b8060005b838110156113dc5781516113c38882611355565b97506113ce83611a70565b9250506001810190506113af565b5085935050505092915050565b6113f281611af0565b82525050565b600061140382611a65565b61140d8185611a8e565b935061141d818560208601611b61565b61142681611c9c565b840191505092915050565b6000815461143e81611b94565b6114488186611a9f565b945060018216600081146114635760018114611474576114a7565b60ff198316865281860193506114a7565b61147d85611a45565b60005b8381101561149f57815481890152600182019150602081019050611480565b838801955050505b50505092915050565b60006114bd600983611a9f565b91507f7b226e616d65223a2200000000000000000000000000000000000000000000006000830152600982019050919050565b60006114fd600b83611a9f565b91507f222c22696d616765223a220000000000000000000000000000000000000000006000830152600b82019050919050565b600061153d601483611a8e565b91507f546f6b656e20616c7265616479206d696e7465640000000000000000000000006000830152602082019050919050565b600061157d602683611a8e565b91507f4f776e61626c653a206e6577206f776e657220697320746865207a65726f206160008301527f64647265737300000000000000000000000000000000000000000000000000006020830152604082019050919050565b60006115e3602583611a9f565b91507f222c22637265617465645f6279223a2253574d53222c2264657363726970746960008301527f6f6e223a220000000000000000000000000000000000000000000000000000006020830152602582019050919050565b6000611649600d83611a8e565b91507f496e76616c696420746f6b656e000000000000000000000000000000000000006000830152602082019050919050565b6000611689601083611a9f565b91507f222c2261747472696275746573223a5b000000000000000000000000000000006000830152601082019050919050565b60006116c9601b83611a9f565b91507f646174613a6170706c69636174696f6e2f6a736f6e3b757466382c00000000006000830152601b82019050919050565b6000611709602083611a8e565b91507f4f776e61626c653a2063616c6c6572206973206e6f7420746865206f776e65726000830152602082019050919050565b6000611749600283611a9f565b91507f5d7d0000000000000000000000000000000000000000000000000000000000006000830152600282019050919050565b6000611789600f83611a9f565b91507f222c22696d6167655f75726c223a2200000000000000000000000000000000006000830152600f82019050919050565b60006117c9602483611a8e565b91507f41646d696e436f6e74726f6c3a204d757374206265206f776e6572206f72206160008301527f646d696e000000000000000000000000000000000000000000000000000000006020830152604082019050919050565b600061182d826116bc565b9150611838826114b0565b91506118448288611431565b915061184f826115d6565b915061185b8287611431565b9150611866826114f0565b91506118728286611431565b915061187d8261177c565b91506118898285611431565b91506118948261167c565b91506118a08284611431565b91506118ab8261173c565b91508190509695505050505050565b60006020820190506118cf600083018461137c565b92915050565b600060208201905081810360008301526118ef818461138b565b905092915050565b600060208201905061190c60008301846113e9565b92915050565b6000602082019050818103600083015261192c81846113f8565b905092915050565b6000602082019050818103600083015261194d81611530565b9050919050565b6000602082019050818103600083015261196d81611570565b9050919050565b6000602082019050818103600083015261198d8161163c565b9050919050565b600060208201905081810360008301526119ad816116fc565b9050919050565b600060208201905081810360008301526119cd816117bc565b9050919050565b6000604051905081810181811067ffffffffffffffff821117156119fb576119fa611c6d565b5b8060405250919050565b600067ffffffffffffffff821115611a2057611a1f611c6d565b5b601f19601f8301169050602081019050919050565b6000819050602082019050919050565b60008190508160005260206000209050919050565b600081519050919050565b600081519050919050565b6000602082019050919050565b600082825260208201905092915050565b600082825260208201905092915050565b600081905092915050565b6000611ab582611b48565b9150611ac083611b48565b925082821015611ad357611ad2611c0f565b5b828203905092915050565b6000611ae982611b28565b9050919050565b60008115159050919050565b60007fffffffff0000000000000000000000000000000000000000000000000000000082169050919050565b600073ffffffffffffffffffffffffffffffffffffffff82169050919050565b6000819050919050565b82818337600083830152505050565b60005b83811015611b7f578082015181840152602081019050611b64565b83811115611b8e576000848401525b50505050565b60006002820490506001821680611bac57607f821691505b60208210811415611bc057611bbf611c3e565b5b50919050565b6000611bd182611b48565b91507fffffffffffffffffffffffffffffffffffffffffffffffffffffffffffffffff821415611c0457611c03611c0f565b5b600182019050919050565b7f4e487b7100000000000000000000000000000000000000000000000000000000600052601160045260246000fd5b7f4e487b7100000000000000000000000000000000000000000000000000000000600052602260045260246000fd5b7f4e487b7100000000000000000000000000000000000000000000000000000000600052604160045260246000fd5b6000601f19601f8301169050919050565b611cb681611ade565b8114611cc157600080fd5b50565b611ccd81611afc565b8114611cd857600080fd5b50565b611ce481611b48565b8114611cef57600080fd5b5056fea26469706673582212200c84aedd6e1c3b15475337e43837a9d67a49786deb1d4feddfa794501da8b92764736f6c63430008000033",
  "linkReferences": {},
  "deployedLinkReferences": {}
}