{
  "_format": "hh-sol-artifact-1",
  "contractName": "ExtensionMint",
  "sourceName": "contracts/ExtensionMint.sol",
  "abi": [
    {
      "inputs": [
        {
          "internalType": "address",
          "name": "creator",
          "type": "address"
        }
      ],
      "stateMutability": "nonpayable",
      "type": "constructor"
    },
    {
      "anonymous": false,
      "inputs": [
        {
          "indexed": true,
          "internalType": "address",
          "name": "account",
          "type": "address"
        },
        {
          "indexed": true,
          "internalType": "address",
          "name": "sender",
          "type": "address"
        }
      ],
      "name": "AdminApproved",
      "type": "event"
    },
    {
      "anonymous": false,
      "inputs": [
        {
          "indexed": true,
          "internalType": "address",
          "name": "account",
          "type": "address"
        },
        {
          "indexed": true,
          "internalType": "address",
          "name": "sender",
          "type": "address"
        }
      ],
      "name": "AdminRevoked",
      "type": "event"
    },
    {
      "anonymous": false,
      "inputs": [
        {
          "indexed": true,
          "internalType": "address",
          "name": "previousOwner",
          "type": "address"
        },
        {
          "indexed": true,
          "internalType": "address",
          "name": "newOwner",
          "type": "address"
        }
      ],
      "name": "OwnershipTransferred",
      "type": "event"
    },
    {
      "inputs": [],
      "name": "_script",
      "outputs": [
        {
          "internalType": "string",
          "name": "",
          "type": "string"
        }
      ],
      "stateMutability": "view",
      "type": "function"
    },
    {
      "inputs": [
        {
          "internalType": "address",
          "name": "admin",
          "type": "address"
        }
      ],
      "name": "approveAdmin",
      "outputs": [],
      "stateMutability": "nonpayable",
      "type": "function"
    },
    {
      "inputs": [],
      "name": "getAdmins",
      "outputs": [
        {
          "internalType": "address[]",
          "name": "admins",
          "type": "address[]"
        }
      ],
      "stateMutability": "view",
      "type": "function"
    },
    {
      "inputs": [
        {
          "internalType": "address",
          "name": "admin",
          "type": "address"
        }
      ],
      "name": "isAdmin",
      "outputs": [
        {
          "internalType": "bool",
          "name": "",
          "type": "bool"
        }
      ],
      "stateMutability": "view",
      "type": "function"
    },
    {
      "inputs": [
        {
          "internalType": "string",
          "name": "name",
          "type": "string"
        },
        {
          "internalType": "string",
          "name": "description",
          "type": "string"
        },
        {
          "internalType": "string",
          "name": "image",
          "type": "string"
        }
      ],
      "name": "mint",
      "outputs": [],
      "stateMutability": "nonpayable",
      "type": "function"
    },
    {
      "inputs": [],
      "name": "owner",
      "outputs": [
        {
          "internalType": "address",
          "name": "",
          "type": "address"
        }
      ],
      "stateMutability": "view",
      "type": "function"
    },
    {
      "inputs": [],
      "name": "renounceOwnership",
      "outputs": [],
      "stateMutability": "nonpayable",
      "type": "function"
    },
    {
      "inputs": [
        {
          "internalType": "address",
          "name": "admin",
          "type": "address"
        }
      ],
      "name": "revokeAdmin",
      "outputs": [],
      "stateMutability": "nonpayable",
      "type": "function"
    },
    {
      "inputs": [
        {
          "internalType": "bytes4",
          "name": "interfaceId",
          "type": "bytes4"
        }
      ],
      "name": "supportsInterface",
      "outputs": [
        {
          "internalType": "bool",
          "name": "",
          "type": "bool"
        }
      ],
      "stateMutability": "view",
      "type": "function"
    },
    {
      "inputs": [
        {
          "internalType": "address",
          "name": "creator",
          "type": "address"
        },
        {
          "internalType": "uint256",
          "name": "tokenId",
          "type": "uint256"
        }
      ],
      "name": "tokenURI",
      "outputs": [
        {
          "internalType": "string",
          "name": "",
          "type": "string"
        }
      ],
      "stateMutability": "view",
      "type": "function"
    },
    {
      "inputs": [
        {
          "internalType": "address",
          "name": "newOwner",
          "type": "address"
        }
      ],
      "name": "transferOwnership",
      "outputs": [],
      "stateMutability": "nonpayable",
      "type": "function"
    }
  ],
  "bytecode": "0x60806040523480156200001157600080fd5b5060405162001f5438038062001f54833981810160405281019062000037919062000182565b620000576200004b6200009f60201b60201c565b620000a760201b60201c565b80600360006101000a81548173ffffffffffffffffffffffffffffffffffffffff021916908373ffffffffffffffffffffffffffffffffffffffff16021790555050620001fc565b600033905090565b60008060009054906101000a900473ffffffffffffffffffffffffffffffffffffffff169050816000806101000a81548173ffffffffffffffffffffffffffffffffffffffff021916908373ffffffffffffffffffffffffffffffffffffffff1602179055508173ffffffffffffffffffffffffffffffffffffffff168173ffffffffffffffffffffffffffffffffffffffff167f8be0079c531659141344cd1fd0a4f28419497f9722a3daafe3b4186f6b6457e060405160405180910390a35050565b6000815190506200017c81620001e2565b92915050565b6000602082840312156200019557600080fd5b6000620001a5848285016200016b565b91505092915050565b6000620001bb82620001c2565b9050919050565b600073ffffffffffffffffffffffffffffffffffffffff82169050919050565b620001ed81620001ae565b8114620001f957600080fd5b50565b611d48806200020c6000396000f3fe608060405234801561001057600080fd5b50600436106100a95760003560e01c8063715018a611610071578063715018a6146101645780638a0162491461016e5780638da5cb5b1461018c578063d645ddf6146101aa578063e9dc6375146101c6578063f2fde38b146101f6576100a9565b806301ffc9a7146100ae57806324d7806c146100de5780632d3456701461010e57806331ae450b1461012a5780636d73e66914610148575b600080fd5b6100c860048036038101906100c3919061128c565b610212565b6040516100d59190611917565b60405180910390f35b6100f860048036038101906100f39190611227565b61029c565b6040516101059190611917565b60405180910390f35b61012860048036038101906101239190611227565b6102f6565b005b6101326103fe565b60405161013f91906118f5565b60405180910390f35b610162600480360381019061015d9190611227565b61052c565b005b61016c610633565b005b6101766106bb565b6040516101839190611932565b60405180910390f35b610194610749565b6040516101a191906118da565b60405180910390f35b6101c460048036038101906101bf91906112b5565b610772565b005b6101e060048036038101906101db9190611250565b610988565b6040516101ed9190611932565b60405180910390f35b610210600480360381019061020b9190611227565b610ad0565b005b60007fe9dc6375000000000000000000000000000000000000000000000000000000007bffffffffffffffffffffffffffffffffffffffffffffffffffffffff1916827bffffffffffffffffffffffffffffffffffffffffffffffffffffffff19161480610285575061028482610bc8565b5b80610295575061029482610bc8565b5b9050919050565b60008173ffffffffffffffffffffffffffffffffffffffff166102bd610749565b73ffffffffffffffffffffffffffffffffffffffff1614806102ef57506102ee826001610c4290919063ffffffff16565b5b9050919050565b6102fe610c72565b73ffffffffffffffffffffffffffffffffffffffff1661031c610749565b73ffffffffffffffffffffffffffffffffffffffff1614610372576040517f08c379a0000000000000000000000000000000000000000000000000000000008152600401610369906119b4565b60405180910390fd5b610386816001610c4290919063ffffffff16565b156103fb573373ffffffffffffffffffffffffffffffffffffffff168173ffffffffffffffffffffffffffffffffffffffff167f7c0c3c84c67c85fcac635147348bfe374c24a1a93d0366d1cfe9d8853cbf89d560405160405180910390a36103f9816001610c7a90919063ffffffff16565b505b50565b606061040a6001610caa565b67ffffffffffffffff811115610449577f4e487b7100000000000000000000000000000000000000000000000000000000600052604160045260246000fd5b6040519080825280602002602001820160405280156104775781602001602082028036833780820191505090505b50905060005b6104876001610caa565b811015610528576104a2816001610cbf90919063ffffffff16565b8282815181106104db577f4e487b7100000000000000000000000000000000000000000000000000000000600052603260045260246000fd5b602002602001019073ffffffffffffffffffffffffffffffffffffffff16908173ffffffffffffffffffffffffffffffffffffffff1681525050808061052090611be6565b91505061047d565b5090565b610534610c72565b73ffffffffffffffffffffffffffffffffffffffff16610552610749565b73ffffffffffffffffffffffffffffffffffffffff16146105a8576040517f08c379a000000000000000000000000000000000000000000000000000000000815260040161059f906119b4565b60405180910390fd5b6105bc816001610c4290919063ffffffff16565b610630573373ffffffffffffffffffffffffffffffffffffffff168173ffffffffffffffffffffffffffffffffffffffff167f7e1a1a08d52e4ba0e21554733d66165fd5151f99460116223d9e3a608eec5cb160405160405180910390a361062e816001610cd990919063ffffffff16565b505b50565b61063b610c72565b73ffffffffffffffffffffffffffffffffffffffff16610659610749565b73ffffffffffffffffffffffffffffffffffffffff16146106af576040517f08c379a00000000000000000000000000000000000000000000000000000000081526004016106a6906119b4565b60405180910390fd5b6106b96000610d09565b565b600580546106c890611bb4565b80601f01602080910402602001604051908101604052809291908181526020018280546106f490611bb4565b80156107415780601f1061071657610100808354040283529160200191610741565b820191906000526020600020905b81548152906001019060200180831161072457829003601f168201915b505050505081565b60008060009054906101000a900473ffffffffffffffffffffffffffffffffffffffff16905090565b3373ffffffffffffffffffffffffffffffffffffffff16610791610749565b73ffffffffffffffffffffffffffffffffffffffff1614806107c357506107c2336001610c4290919063ffffffff16565b5b610802576040517f08c379a00000000000000000000000000000000000000000000000000000000081526004016107f9906119d4565b60405180910390fd5b61080c600b610dcd565b600060045414610851576040517f08c379a000000000000000000000000000000000000000000000000000000000815260040161084890611954565b60405180910390fd5b82600690805190602001906108679291906110c8565b50816007908051906020019061087e9291906110c8565b508060096000600281106108bb577f4e487b7100000000000000000000000000000000000000000000000000000000600052603260045260246000fd5b0190805190602001906108cf9291906110c8565b50600360009054906101000a900473ffffffffffffffffffffffffffffffffffffffff1673ffffffffffffffffffffffffffffffffffffffff16632928ca58336040518263ffffffff1660e01b815260040161092b91906118da565b602060405180830381600087803b15801561094557600080fd5b505af1158015610959573d6000803e3d6000fd5b505050506040513d601f19601f8201168201806040525081019061097d919061134c565b600481905550505050565b6060600360009054906101000a900473ffffffffffffffffffffffffffffffffffffffff1673ffffffffffffffffffffffffffffffffffffffff168373ffffffffffffffffffffffffffffffffffffffff161480156109e8575060045482145b610a27576040517f08c379a0000000000000000000000000000000000000000000000000000000008152600401610a1e90611994565b60405180910390fd5b600660076009600060028110610a66577f4e487b7100000000000000000000000000000000000000000000000000000000600052603260045260246000fd5b016009600060028110610aa2577f4e487b7100000000000000000000000000000000000000000000000000000000600052603260045260246000fd5b016008604051602001610ab9959493929190611842565b604051602081830303815290604052905092915050565b610ad8610c72565b73ffffffffffffffffffffffffffffffffffffffff16610af6610749565b73ffffffffffffffffffffffffffffffffffffffff1614610b4c576040517f08c379a0000000000000000000000000000000000000000000000000000000008152600401610b43906119b4565b60405180910390fd5b600073ffffffffffffffffffffffffffffffffffffffff168173ffffffffffffffffffffffffffffffffffffffff161415610bbc576040517f08c379a0000000000000000000000000000000000000000000000000000000008152600401610bb390611974565b60405180910390fd5b610bc581610d09565b50565b60007f553e757e000000000000000000000000000000000000000000000000000000007bffffffffffffffffffffffffffffffffffffffffffffffffffffffff1916827bffffffffffffffffffffffffffffffffffffffffffffffffffffffff19161480610c3b5750610c3a82610de3565b5b9050919050565b6000610c6a836000018373ffffffffffffffffffffffffffffffffffffffff1660001b610e4d565b905092915050565b600033905090565b6000610ca2836000018373ffffffffffffffffffffffffffffffffffffffff1660001b610e70565b905092915050565b6000610cb882600001610ff6565b9050919050565b6000610cce8360000183611007565b60001c905092915050565b6000610d01836000018373ffffffffffffffffffffffffffffffffffffffff1660001b611058565b905092915050565b60008060009054906101000a900473ffffffffffffffffffffffffffffffffffffffff169050816000806101000a81548173ffffffffffffffffffffffffffffffffffffffff021916908373ffffffffffffffffffffffffffffffffffffffff1602179055508173ffffffffffffffffffffffffffffffffffffffff168173ffffffffffffffffffffffffffffffffffffffff167f8be0079c531659141344cd1fd0a4f28419497f9722a3daafe3b4186f6b6457e060405160405180910390a35050565b6001816000016000828254019250508190555050565b60007f01ffc9a7000000000000000000000000000000000000000000000000000000007bffffffffffffffffffffffffffffffffffffffffffffffffffffffff1916827bffffffffffffffffffffffffffffffffffffffffffffffffffffffff1916149050919050565b600080836001016000848152602001908152602001600020541415905092915050565b60008083600101600084815260200190815260200160002054905060008114610fea576000600182610ea29190611aca565b9050600060018660000180549050610eba9190611aca565b9050818114610f75576000866000018281548110610f01577f4e487b7100000000000000000000000000000000000000000000000000000000600052603260045260246000fd5b9060005260206000200154905080876000018481548110610f4b577f4e487b7100000000000000000000000000000000000000000000000000000000600052603260045260246000fd5b90600052602060002001819055508387600101600083815260200190815260200160002081905550505b85600001805480610faf577f4e487b7100000000000000000000000000000000000000000000000000000000600052603160045260246000fd5b600190038181906000526020600020016000905590558560010160008681526020019081526020016000206000905560019350505050610ff0565b60009150505b92915050565b600081600001805490509050919050565b6000826000018281548110611045577f4e487b7100000000000000000000000000000000000000000000000000000000600052603260045260246000fd5b9060005260206000200154905092915050565b60006110648383610e4d565b6110bd5782600001829080600181540180825580915050600190039060005260206000200160009091909190915055826000018054905083600101600084815260200190815260200160002081905550600190506110c2565b600090505b92915050565b8280546110d490611bb4565b90600052602060002090601f0160209004810192826110f6576000855561113d565b82601f1061110f57805160ff191683800117855561113d565b8280016001018555821561113d579182015b8281111561113c578251825591602001919060010190611121565b5b50905061114a919061114e565b5090565b5b8082111561116757600081600090555060010161114f565b5090565b600061117e61117984611a25565b6119f4565b90508281526020810184848401111561119657600080fd5b6111a1848285611b72565b509392505050565b6000813590506111b881611ccd565b92915050565b6000813590506111cd81611ce4565b92915050565b600082601f8301126111e457600080fd5b81356111f484826020860161116b565b91505092915050565b60008135905061120c81611cfb565b92915050565b60008151905061122181611cfb565b92915050565b60006020828403121561123957600080fd5b6000611247848285016111a9565b91505092915050565b6000806040838503121561126357600080fd5b6000611271858286016111a9565b9250506020611282858286016111fd565b9150509250929050565b60006020828403121561129e57600080fd5b60006112ac848285016111be565b91505092915050565b6000806000606084860312156112ca57600080fd5b600084013567ffffffffffffffff8111156112e457600080fd5b6112f0868287016111d3565b935050602084013567ffffffffffffffff81111561130d57600080fd5b611319868287016111d3565b925050604084013567ffffffffffffffff81111561133657600080fd5b611342868287016111d3565b9150509250925092565b60006020828403121561135e57600080fd5b600061136c84828501611212565b91505092915050565b6000611381838361138d565b60208301905092915050565b61139681611afe565b82525050565b6113a581611afe565b82525050565b60006113b682611a7a565b6113c08185611a9d565b93506113cb83611a55565b8060005b838110156113fc5781516113e38882611375565b97506113ee83611a90565b9250506001810190506113cf565b5085935050505092915050565b61141281611b10565b82525050565b600061142382611a85565b61142d8185611aae565b935061143d818560208601611b81565b61144681611cbc565b840191505092915050565b6000815461145e81611bb4565b6114688186611abf565b945060018216600081146114835760018114611494576114c7565b60ff198316865281860193506114c7565b61149d85611a65565b60005b838110156114bf578154818901526001820191506020810190506114a0565b838801955050505b50505092915050565b60006114dd600983611abf565b91507f7b226e616d65223a2200000000000000000000000000000000000000000000006000830152600982019050919050565b600061151d600b83611abf565b91507f222c22696d616765223a220000000000000000000000000000000000000000006000830152600b82019050919050565b600061155d601483611aae565b91507f546f6b656e20616c7265616479206d696e7465640000000000000000000000006000830152602082019050919050565b600061159d602683611aae565b91507f4f776e61626c653a206e6577206f776e657220697320746865207a65726f206160008301527f64647265737300000000000000000000000000000000000000000000000000006020830152604082019050919050565b6000611603602583611abf565b91507f222c22637265617465645f6279223a2253574d53222c2264657363726970746960008301527f6f6e223a220000000000000000000000000000000000000000000000000000006020830152602582019050919050565b6000611669600d83611aae565b91507f496e76616c696420746f6b656e000000000000000000000000000000000000006000830152602082019050919050565b60006116a9601083611abf565b91507f222c2261747472696275746573223a5b000000000000000000000000000000006000830152601082019050919050565b60006116e9601b83611abf565b91507f646174613a6170706c69636174696f6e2f6a736f6e3b757466382c00000000006000830152601b82019050919050565b6000611729602083611aae565b91507f4f776e61626c653a2063616c6c6572206973206e6f7420746865206f776e65726000830152602082019050919050565b6000611769600283611abf565b91507f5d7d0000000000000000000000000000000000000000000000000000000000006000830152600282019050919050565b60006117a9600f83611abf565b91507f222c22696d6167655f75726c223a2200000000000000000000000000000000006000830152600f82019050919050565b60006117e9602483611aae565b91507f41646d696e436f6e74726f6c3a204d757374206265206f776e6572206f72206160008301527f646d696e000000000000000000000000000000000000000000000000000000006020830152604082019050919050565b600061184d826116dc565b9150611858826114d0565b91506118648288611451565b915061186f826115f6565b915061187b8287611451565b915061188682611510565b91506118928286611451565b915061189d8261179c565b91506118a98285611451565b91506118b48261169c565b91506118c08284611451565b91506118cb8261175c565b91508190509695505050505050565b60006020820190506118ef600083018461139c565b92915050565b6000602082019050818103600083015261190f81846113ab565b905092915050565b600060208201905061192c6000830184611409565b92915050565b6000602082019050818103600083015261194c8184611418565b905092915050565b6000602082019050818103600083015261196d81611550565b9050919050565b6000602082019050818103600083015261198d81611590565b9050919050565b600060208201905081810360008301526119ad8161165c565b9050919050565b600060208201905081810360008301526119cd8161171c565b9050919050565b600060208201905081810360008301526119ed816117dc565b9050919050565b6000604051905081810181811067ffffffffffffffff82111715611a1b57611a1a611c8d565b5b8060405250919050565b600067ffffffffffffffff821115611a4057611a3f611c8d565b5b601f19601f8301169050602081019050919050565b6000819050602082019050919050565b60008190508160005260206000209050919050565b600081519050919050565b600081519050919050565b6000602082019050919050565b600082825260208201905092915050565b600082825260208201905092915050565b600081905092915050565b6000611ad582611b68565b9150611ae083611b68565b925082821015611af357611af2611c2f565b5b828203905092915050565b6000611b0982611b48565b9050919050565b60008115159050919050565b60007fffffffff0000000000000000000000000000000000000000000000000000000082169050919050565b600073ffffffffffffffffffffffffffffffffffffffff82169050919050565b6000819050919050565b82818337600083830152505050565b60005b83811015611b9f578082015181840152602081019050611b84565b83811115611bae576000848401525b50505050565b60006002820490506001821680611bcc57607f821691505b60208210811415611be057611bdf611c5e565b5b50919050565b6000611bf182611b68565b91507fffffffffffffffffffffffffffffffffffffffffffffffffffffffffffffffff821415611c2457611c23611c2f565b5b600182019050919050565b7f4e487b7100000000000000000000000000000000000000000000000000000000600052601160045260246000fd5b7f4e487b7100000000000000000000000000000000000000000000000000000000600052602260045260246000fd5b7f4e487b7100000000000000000000000000000000000000000000000000000000600052604160045260246000fd5b6000601f19601f8301169050919050565b611cd681611afe565b8114611ce157600080fd5b50565b611ced81611b1c565b8114611cf857600080fd5b50565b611d0481611b68565b8114611d0f57600080fd5b5056fea2646970667358221220950598a4ea21f4fd7777fb686d0a3661f1d2d61a800b727f839adff6e3d1efe064736f6c63430008000033",
  "linkReferences": {},
  "deployedLinkReferences": {}
}